:020000020000FC
:0400000060C054C0C8
:02000E0023C00D
:02000C0047C0EB
:100012001F921FB62F92EF93FF932224E0E6F0E0A7
:10002200E10FF21D2CB02091D501223319F0422D9F
:100032004D3071F0579820821395183708F0112728
:10004200FF91EF912F901FBE1F90F894579A189529
:100052007ADAF0CF0FB63091D60132BF739580FFB6
:100062000BC00894829B88945795783019F43327F3
:1000720039BF82600FBE1895713011F4C398FACF60
:100082007A3029F4C39A332739BF8160F3CF50FD08
:10009200C39A50FFC3985695EDCF2F932091F90143
:1000A20023952093F9012F9118951F921FB6969AC6
:1000B20040E04BBF1FBE1F9040E44BBF91E018953C
:1000C20042E04EBF4FE54DBFD09AD59AD69AA0983E
:1000D200A198A298A398A498A598A69AA79AAE9830
:1000E200AF988E9A9698909A47E48F9A979849B9C2
:1000F200539A549A579A42E045BF40E44BBFE4E01A
:10010200F0E04CD92D7F2F7E2093060290E0442709
:100112004093FA014093FB014427042F142FE1E09E
:10012200F0E03CD9422F4093C9017ED076D073DAF9
:10013200319634D9422F4093D60131962FD9422F8E
:100142004093D70140E04093D80042E34093D50169
:1001520093D69DD6A0D64427042F142F4093500146
:1001620041E34093D501FBD9E4E0F0E017D9422FF7
:1001720041FD01C003C0789432D601C0789455275E
:1001820066D044274093F901409106024E7F409386
:10019200060244274093FF0140930002E4E0F0E0AE
:1001A200FDD8422F40FD1BD94FE041BD22E6C49845
:1001B20068DBC49AE9E1F0E0F1D820930502A89542
:1001C200E0ECFEE18CDC22FFB9DCECECFEE187DC4A
:1001D20022FFD6DC3091F901333009F410D933B360
:1001E200387348E33413C8D8EACF969AA6D79698BC
:1001F200C0E5D1E05BD6E0E5F1E02091060221FF07
:1002020014D521FDFFD62091060220FD14D0A1D9DC
:10021200D6CFFCD4D4CFD3CFD2CFBE98BD9ABF9A7B
:10022200BC9AA09AA19A089581E03091C90133BF86
:10023200BB9A8A98089535E03EBD30E839BF30E078
:100242003DBD30E03CBD30E838BF39BF0895882756
:10025200772732E039BF80FFFECF0895539A5D9B26
:10026200FDCF2CB90895829BFECF8299FECF3091AB
:10027200D70132BF32E038BF39BF772781FFFECFC7
:100282008D7F0895969A6BD9C0E5D1E09BD42993CE
:100292002030E1F7E2E0FCE1C0E5CF93D1E0F4D415
:1002A20024972F91C21711F424962EC1ECEDFCE194
:1002B200C0E5CF93D1E0E8D42A972F91C21711F469
:1002C2002A964BC1E8E9FCE1C0E5CF93D1E0DCD44A
:1002D20026972F91C21711F426968CC1E0EAFCE111
:1002E200C0E5CF93D1E0D0D427972F91C21711F454
:1002F2002796A2C1E2EBFCE1C0E5CF93D1E0C4D4E2
:100302002C972F91C21711F42C96C1C1E0ECFCE19D
:10031200C0E5CF93D1E0B8D42A972F91C21711F438
:100322002A96A1C1ECECFCE1C0E5CF93D1E0ACD4BC
:100332002D972F91C21711F42D969FC1E2E9FCE18E
:10034200C0E5CF93D1E0A0D424972F91C21711F426
:100352002496D6C1EEE0FCE1C0E5CF93D1E094D47F
:1003620022972F91C21711F422965AC2E8E0FCE1BB
:10037200C0E5CF93D1E088D424972F91C21711F40E
:10038200249671C2ECE8FCE1C0E5CF93D1E07CD4C5
:1003920024972F91C21711F424966EC3ECEAFCE164
:1003A200C0E5CF93D1E070D423972F91C21711F4F7
:1003B2002396A1C3E4E3FCE1C0E5D1E065D4CC23FC
:1003C20009F0D3C1E4E3FCE1C0E5D1E05DD4CC2384
:1003D20009F0D8C1E8E5FCE1C0E5D1E055D4CC2371
:1003E20009F0D1C1EEEEFBE1C0E5D1E04DD4CC2362
:1003F20009F056C0E2E7FCE1C0E5D1E045D4CC23E8
:1004020009F0A2C2EEE7FCE1C0E5D1E03DD4CC2385
:1004120009F09EC2ECEFFBE1C0E5CF93D1E034D40A
:1004220023972F91C21711F4239693C2E4E8FCE1BB
:10043200C0E5D1E029D4CC2309F09AC3E0EDFBE179
:10044200C0E5D1E021D4CC2369F5E6EDFBE1C0E5BE
:10045200D1E01AD4CC2361F5EEEDFBE1C0E5D1E0A9
:1004620013D4CC2309F5E6EEFBE1C0E5D1E00CD4D0
:10047200CC23E1F4E8EFFBE1C0E5CF93D1E004D473
:1004820022972F91C21709F439C02091060221FD4B
:1004920006C02091D501213309F06EC371C384C314
:1004A20048ED07C041E405C041E803C044E001C093
:1004B20042E0A1EDB1E0A0D4E1EDF1E0A9ECB1E0C0
:1004C2003DD4E9ECF1E0C0E5D1E0F0D4E8E0FDE1B3
:1004D2002197F1D4CF93DF93E1EDF1E0319631969C
:1004E200A9ECB1E02BD4E9ECF1E0DF91CF912197B7
:1004F200DDD4EEE0FDE12197DED448C3E8EEFCE175
:10050200C0E5D1E0D8D442C3EC2FFD2F3196209123
:10051200060221FF0AC0EF93FF9321912223E9F7FC
:10052200349722272083FF91EF9189D306D644275F
:1005320040935001C0E5D1E0E8EDF0E03196B6D449
:1005420081D507D844274093F901409106024160C2
:100552004093060299276FDE15C3219648812196A2
:10056200288188942053889440538894240F240F20
:10057200240F240F240F240F240F240F240F240FE1
:10058200E9E1F0E0FBD62BD424E568DE25E666DE61
:100592002DE664DE20E762DE22E760DE25E65EDE2F
:1005A20026E65CDE2AE35ADE22272093D101E9E126
:1005B200F0E0F4D62093D201E1EDF1E0A9ECB1E054
:1005C200BDD32091CC014ADE2091CD0147DE2DE042
:1005D20045DEBFD744274093F901409106024160AE
:1005E2004093060228DE48D452D455D44427042F1F
:1005F200142FC8C220E332DEEC2FFD2F319620915A
:10060200060221FF0AC0EF93FF9321912223E9F70B
:10061200349722272083FF91EF9152E018DE0FD307
:1006220053E015DE96D790E044274093F9012091DC
:10063200060220FD00DEA6C2EC2FFD2F319620918E
:10064200060221FF0AC0EF93FF9321912223E9F7CB
:10065200349722272083FF91EF9152E0F8DDEFD209
:1006620053E0F5DD8FC2EC2FFD2F3196C6E4D0E0CA
:100672002091060221FF31C026C0EC2FFD2F3196BA
:10068200C9ECD0E02091060221FF14C009C0EC2F72
:10069200FD2F3196C7E0D0E02091060221FF0AC06B
:1006A200EF93FF9321912223E9F7359722272083A5
:1006B200FF91EF9120816AD6222319F0319621967B
:1006C200F9CF47D75FC2EF93FF9321912223E9F736
:1006D200359722272083FF91EF9120812053319675
:1006E200222319F02D962A95FBCF2081222321F077
:1006F2004DD631962196F9CF20E248D62AD742C26A
:1007020021962881203321F0213391F02233B1F058
:1007120021962881C498B5D8C49A26E7C498B1D83E
:10072200C49A9CDD26E7C498ACD8C49A97DD0CC065
:1007320021962881A898A5D8A89A06C02196288132
:10074200A9989FD8A99A00C004D744274093F901D9
:10075200409106024160409306026DDD8DD397D32E
:100762009AD34427042F142F0DC2969841E0409348
:1007720000022196299120930102299120930202DD
:10078200C6D400C2FFC1E0E6FCE17ED2ABEDB1E02F
:1007920029912D932232E1F722272E93CF93DF93D3
:1007A200CBEDD1E0E6E4F0E0ABD2EE2339F4DF9119
:1007B200CF91E0E7FDE12FD212D3E4C12091D50120
:1007C200203329F4EBEDF1E03AD25DE040DDDF9138
:1007D200CF91EC2FFD2F7896EF93FF93ECE1FCE1A4
:1007E20053D222272A932A93FF91EF91C0E5D1E0B9
:1007F20022975CD3C0E5D1E0A0D620910602226008
:100802002093060220915001969843E2241342CD90
:10081200E0E5F1E0319609D22DE020DDE0D232CDE3
:1008220021962881213459F0223481F02033A8F016
:10083200233398F42093D501ECE1FCE110C0E5E00C
:10084200F0E020E09BD5ECE1FCE109C0E5E0F0E05E
:1008520021E094D5ECE1FCE102C0E0E2FCE1C0E57C
:10086200D1E029D393C121962881203361F021332D
:10087200E9F0223369F12333E9F1243319F0E0E29C
:10088200FCE15EC049C0E1E0F0E022E077D542E061
:100892004093C901C9DC2BE6319670D52093D6016D
:1008A20022E431966BD52093D70148C0E1E0F0E015
:1008B20022E064D52093C901B7DC28EB31965ED5DE
:1008C2002093D6012BE9319659D52093D70136C012
:1008D200E1E0F0E022E052D52093C901A5DC2DED44
:1008E20031964CD52093D60124ED319647D52093ED
:1008F200D70124C0E1E0F0E022E040D52093C90115
:1009020093DC29EE31963AD52093D60126EE319624
:1009120035D52093D70112C0E1E0F0E021E02ED5D9
:100922002093C90181DC29EA319628D52093D6018A
:1009320026E8319623D52093D70100C0ECE1FCE1F3
:10094200C0E5D1E0B8D222C121E32093D5011AC17A
:1009520019C1219628812033E1F1213339F0223364
:1009620081F02333C1F0E0E2FCE182C0FFCFE6E098
:10097200F0E021E003D5FACFE6E0F0E020E0FED49B
:10098200F5CFE8E1F0E021E0F9D429D22FE466DCEA
:100992002EE664DC0BC020E0E8E1F0E0EFD41FD2E9
:1009A2002FE45CDC26E65ADC26E658DC2DE056DC39
:1009B200D0D544274093F90140910602416040930B
:1009C200060239DC59D263D266D24427042F142F8F
:1009D200D9C005D224E542DC25E640DC2DE63EDC2A
:1009E20020E73CDC2AE33ADCA89522272093D101B8
:1009F200E8D72093D201E1EDF1E0A9ECB1E09ED17C
:100A02002091CC012BDC2091CD0128DC2FE226DCC9
:100A120024E524DC25E622DC2DE620DC20E71EDCB2
:100A220022E71CDC25E61ADC26E618DC2AE316DCC3
:100A320022272093D101E9E1F0E0B0D42093D20142
:100A4200E1EDF1E0A9ECB1E079D12091CC0106DC35
:100A52002091CD0103DC2DE001DC7BD544274093BE
:100A6200F90140910602416040930602E4DB8AC02C
:100A7200C0E5D1E020D28AC021962881203329F016
:100A8200213359F0E0E2FCE132C030E03EBD30916A
:100A920006023E7F3093060228C0EBEDF1E0CAEE7B
:100AA200D1E004D244274093D800E8E1FEE1D1D05E
:100AB20044D3E8EDF0E0C0E5D1E044E249934CE4F0
:100AC200499343E549933196F1D120915301209303
:100AD200FF0198D23ED544274093F9014091060286
:100AE200416040930602A7DB4DC0ECE1FCE1C0E5AA
:100AF200D1E0E1D14BC021962881203359F0213336
:100B020089F02233F9F0233321F1243349F1E0E271
:100B1200FCE12AC030E03EBD309106023E7F3093B8
:100B2200060220C0EBEDF1E0CAEED1E0BFD14427CE
:100B32004093F9014091060241604D7F40930602C5
:100B42007ADB10C0E4E0F0E029D4689420F916D4EE
:100B520009C0E4E0F0E022D4E89420F90FD402C006
:100B62003ED400C0ECE1FCE1C0E5D1E0A4D10EC06E
:100B720022272093D50106C0E0E5F1E060D002C053
:100B820096980895222720935001FACFE0E5F1E0EC
:100B92002091060221FF49D021FD34D2DAD4F0CFD0
:100BA20022272093500108952091D501203339F452
:100BB200E0E5F1E051E44BDB42D052E448DB22D2E3
:100BC200C8D4DECFEF93FF932227011771F02224BE
:100BD200E0E6F0E0E00FF21F20810395083708F00D
:100BE20000270894EF91FF9108958894EF91FF9167
:100BF200089533272227E8EFFBE121E0E20F2227C5
:100C0200C895539A5D9BFDCF0CB808953327E0E554
:100C1200F1E00BD00895C895002031F0539A5D9B06
:100C2200FDCF0CB83196F7CF08952081222331F001
:100C3200539A5D9BFDCF2CB93196F7CF0895969AC2
:100C42002081222321F0522F02DB3196F8CF969891
:100C52000895C895002021F0502DF9DA3196F9CF88
:100C62000895C895442329F0502DF1DA31964A951A
:100C7200F8CF0895969A92D3222321F0522FE7DAE1
:100C82003196F8CF96980895AE2FBF2FC895288138
:100C9200021669F0EA2FFB2F2197C89528810216C8
:100CA20059F0219621962881222341F0EFCF3196E7
:100CB200C895002031F0F6CF3196F3CFCC27DD274F
:100CC20000C00895AC2FBD2F2881C895201569F06A
:100CD200CA2FDB2F31972881C895201559F03196FC
:100CE2003196C895002041F0EFCF2196288122232A
:100CF20031F0F6CF2196F3CFEE27FF2700C00895FB
:100D0200AC2FBD2F08804AD3021669F0CA2FDB2F01
:100D12003197088043D3021659F0319631963ED36B
:100D2200222341F0EFCF21960880002031F0F6CF48
:100D32002196F3CFEE27FF2700C0089588944191B2
:100D42003081E32FF42F30E044E0C0E1D7E2339565
:100D5200EC1BFD0BE0F788943A95EC0FFD1F4A95CA
:100D620020E3230F2D9330E0413059F0423031F02F
:100D7200433009F009C0C8EED3E0E9CFC4E6D0E0C1
:100D8200E6CFCAE0D0E0E3CF3E2F20E3230F2D933E
:100D920020E02C9308954F933F932F934091D801D5
:100DA2003091D9014A952091DA013A95A8952A9570
:100DB2002223E1F73323B9F7442391F72F913F918F
:100DC2004F9108952F9320E22093D80120E520939C
:100DD200D90121E02093DA01DEDF2F9108952F93CC
:100DE2002FEF2093D8012FEF2093D9012FE82093E2
:100DF200DA01D1DF2F91089530E23093D80130E546
:100E02003093D90131E03093DA011396B89AB99A46
:100E1200BA9AC09AC29838E0479538F1C1983A9583
:100E2200C298B9DFC29AB7DF3323B1F7B4DFC198F2
:100E3200B2DFB998C09AC29830E220E0ACDFC29823
:100E4200AADFC29A46B38894427009F401C008949A
:100E520027953A95383161F0303151F0383041F010
:100E6200303061F72C93C0980895C19A8894D7CFF7
:100E72002C93119720E0E2CF3F933327C0E5D1E0D6
:100E82002227299333953837E1F73F9108959ADE67
:100E92002030E9F708953F933327C8EDD0E02227A9
:100EA200299333953837E1F73F910895219129939A
:100EB2002030E1F70895C89531960992202D20300F
:100EC200D1F70895E2E1FDE1A6DEC0E5D1E087DFDA
:100ED20040E24093D80140E54093D90141E040937C
:100EE200DA014427222720935001403031F141306A
:100EF20061F1423091F04330C1F0443031F045307D
:100F020061F1463009F031C056C0ECE8FDE183DE04
:100F1200C0E5D1E064DF56DF28C0E0E6FDE17BDE1C
:100F2200C0E5D1E05CDF4EDF20C0E4E2FDE173DE2C
:100F3200C0E5D1E054DF46DF18C0E2E1FDE16BDE3F
:100F4200C0E5D1E04CDF3EDF10C0E8E1FDE163DE49
:100F5200C0E5D1E044DF36DF08C0E0E7FDE15BDE5B
:100F6200C0E5D1E03CDF2EDF00C015DF2BDE2A30EA
:100F720021F02030D1F32993F8CF22272993ECE1F5
:100F8200FCE1C0E5D1E080DECC2309F015C0E0E24F
:100F9200FCE1C0E5D1E078DECC2309F012C0E6E244
:100FA200FCE1C0E5D1E070DECC2309F00EC02227BF
:100FB2002093500197CF0895439522272093500103
:100FC20091CF2227209350018DCF43952227209342
:100FD200500188CFD89A03DF02DF01DFD898E2E11F
:100FE200FDE119DEFCDEFBDEE8E1FDE114DEF7DE09
:100FF200E4E2FDE110DEF3DEE8E6FDE10CDEEFDE29
:10100200EEDE0895E6E9FDE106DEE9DEE6E5FDE174
:1010120002DEEBEDF1E009DE22E220D92DE01ED95D
:10102200DEDEE0E5F1E001DEDADE2AE117D9D7DE25
:10103200D6DEEEE7FDE1EFDDD2DED1DED0DECFDEC1
:101042003CD00895E6E9FDE1E6DDC9DEE6E5FDE135
:10105200E2DDEBEDF1E0E9DD22E200D92DE0FED8A0
:10106200BEDEE0E5F1E0E1DDBADE2AE1F7D8B7DE87
:10107200B6DEEEE7FDE1CFDDB2DEB1DEB0DEAFDE41
:101082001CD0ADDEACDEABDE089520915301409161
:10109200FF01421739F0EAEEF1E0CBEDD1E006DFD5
:1010A200B1DF57D2209153012093FF01442740938F
:1010B200F90140935001BFD8089540910002413098
:1010C20061F0423069F0433071F0443079F04530DC
:1010D20081F044274093000219C0E2EBFDE10CC00D
:1010E200EEEBFDE109C0EAECFDE106C0E6EDFDE153
:1010F20003C0E2EEFDE100C08EDD409100024395A7
:10110200409300024427042F142F69DE0895EEEE67
:10111200FDE181DD20910102A1D8209102022D3052
:1011220009F02DE09BD840910002439540930002C4
:101132004427042F142F53DE089544274093FC01C3
:101142004093FD014093FE01A895913091F04395A3
:101152004F3FD1F73091FC0133953093FC013F3F73
:1011620099F73091FD0133953093FD013F3F61F7CF
:1011720024C03091D70132BF32E038BF39BF772760
:1011820081FFFECF8D7F503081F03091D8003395B2
:101192003093D800E8EDF0E0E31F08F4F3955083B4
:1011A20021F05D3021F0533011F090E0C6CFE8ED30
:1011B200F0E03395E31F08F4F39544274083E8ED0C
:1011C200F0E0319644274093D80090E09698089535
:1011D20044274093FC014093FD014093FE0191306E
:1011E20091F043954F3FD9F73091FC0133953093FD
:1011F200FC013F3FA1F73091FD0133953093FD0192
:101202003F3F69F720C03091D70132BF32E038BF8B
:1012120039BF772781FFFECF8D7F3091D80033957C
:101222003093D800E8EDF0E0E31F08F4F395508323
:1012320011F0231711F090E0CBCFE8EDF0E03395F9
:10124200E31F08F4F39544274083E8EDF0E031967C
:1012520044274093D80090E096980BC03091F90152
:10126200333008F4BCCF90E0969844274093F901BC
:10127200A6C708959B9B13C09C9B14C09D9B32C024
:101282007AC00CD46EC001C06CC0AE986AC015D4CE
:1012920068C067C0AF9865C064C0DE9862C072D390
:1012A20060C05FC0ABEDB1E025E52D9322E12D9347
:1012B20020EA2D932FE12D9323E72D9320E02D9308
:1012C20020E02D9320E02D932EEE2D9325E52D93F6
:1012D20027E02D9320E02D932EE02D93ABEDB1E08E
:1012E200DDD33FC0ABEDB1E025E52D9322E12D9397
:1012F20020EA2D932FE12D9323E72D9320E02D93C8
:1013020020E02D9320E02D932EEE2D9325E52D93B5
:1013120027E02D9320E02D932DE62D93ABEDB1E048
:10132200BDD3ABEDB1E025E52D9322E12D932FE264
:101332002D9322E22D9323E72D9320E02D9320E09D
:101342002D9320E02D9328E42D9325E52D9327E07E
:101352002D9320E02D932DE62D93ABEDB1E09ED39E
:1013620000C090E044274093F9014093500120913E
:10137200060220FD60D708957DDF0895E199FECF32
:10138200FFBBEEBB2DBBE29AE19A0895E199FECF35
:10139200DFBBCEBB2DBBE29AE19A0895E199FECF65
:1013A200FFBBEEBBE09A2DB30895E199FECFDFBB00
:1013B200CEBBE09A2DB30895969AF0DF222321F056
:1013C200022E09923196F8CF002409929698089538
:1013D2000895E7E0F0E0CAEED1E0EEDF0895F9DF2C
:1013E200409106024D7F4093060244274093F90143
:1013F200409106024160409306021DD70895E9E13B
:10140200F0E0CCDF422F209105024217A1F0E9E182
:10141200F0E0B4DF5EEF1BD758E519D755E517D7D3
:1014220050E715D754E613D751E611D754E70FD733
:1014320055E60DD77BC0E8E1F0E0B0DF20FF54C0F5
:101442005EEF05D758E503D7E9E1F0E0A7DF422FC9
:101452004F9349E1A9D1E2EAFEE1B3D24F91421B97
:10146200D1F10AF4E2F0423068F4542FF0D650E79A
:10147200EED65DE0ECD65AE0EAD62AE6C49801D26E
:10148200C49A45C0542FE3D650E5E1D65DE0DFD6DD
:101492005AE0DDD625E7C498F4D1C49A38C04E3F4D
:1014A20068F0542FD4D65EE6D2D65DE0D0D65AE0AC
:1014B200CED62BE6C498E5D1C49A29C0542FC7D6FC
:1014C2005EE4C5D65DE0C3D65AE0C1D629E6C4982B
:1014D200D8D1C49A1CC0542FBAD655E4B8D65DE010
:1014E200B6D65AE0B4D613C02BE6C498CAD1C49A71
:1014F20026E7C498C6D1C49A26E7C498C2D1C49A32
:10150200522FA5D604C003C002C0BFDD0895E2EA8F
:10151200FEE157D241E348D1ECEAFEE152D241E387
:1015220043D1E6EBFEE14DD249E13ED1442740935F
:10153200F901409350017FD608954091060242601E
:1015420040930602089540910602406140930602CC
:101552000895409106024D7F4093060208954091FE
:1015620006024F7E4093060208954FE24993E9EC4A
:10157200F0E022DF2197089560E03091CC014091A4
:10158200D4014317F8F06FB761FF08953091CB0192
:101592004091D3014317B0F06FB761FF08953091C6
:1015A200CA014091D201431768F06FB761FF0895F5
:1015B2003091C9014091D101431720F06FB761FD0D
:1015C20001C008952227C9ECD1E0E1EDF1E02C2F12
:1015D200488130818894430B40F0488321963196AC
:1015E20023952C3CA9F76FB70895219638813030A6
:1015F200E1F33A95388321973881303031F42C1752
:1016020021F03FEF38832197F7CF889448813081CA
:10161200430BE3CF0895C79822EC33D12093D10135
:10162200BADB24E02ED12093D201B5DB20E029D110
:101632002093D30137E644274093C9014093CA015E
:101642004093CB014093CC012091D1018894321F69
:101652003093D1012091D3013327321F3093D3012C
:101662002091D1013091C9018894321F3093C90170
:101672002091D3013091CA01321F3093CA014395A0
:101682004A3071F708954F9333273093C80140FDD4
:1016920015C0E4EEFEE112C030930702E8EEFEE16F
:1016A2000DC0309308024091D00140930902ECEE44
:1016B200FEE104C030930A02E0EFFEE1C895009219
:1016C200D101E395C8950092D201E395C8950092A5
:1016D200D301E395C8950092D40144274093CF01EA
:1016E2004093D00149DF61FF0DC031E04091CF014D
:1016F200431F4093CF01B0F74091D00143954093EF
:10170200D001F0CF3091CF014091C8014395409371
:10171200C801413091F0423021F2433059F24091F8
:10172200CF0140930B0208954091CF014093D20123
:101732004091D0014093D10108954F9140FDF4CFE3
:10174200ABCF3F932F9340FD41E441FD41E8A1ED32
:10175200B1E052DB4091D4014093C9014091D301E1
:101762004093CA014091D2014093CB014091D101F3
:101772004093CC014F9140FD03C041FD04C006C01F
:10178200E8E0FFE103C0ECE0FFE1F6DE4F917BDF32
:1017920044274093D1014093D2014093D301409317
:1017A200D4014091C90108954F9340FD03C041FD0A
:1017B2000CC01FC02093D20122272093D301209373
:1017C200D4012093D101E1EDF1E0A9ECB1E0B6DA68
:1017D200E9ECF1E031964F914F9344FD32962FDAC6
:1017E2004F9145FD5FE246FD50E247FD5DE043FF5C
:1017F2002ED508954091D20140930E024091D1011D
:1018020040930F0230910402341748F031F44091B2
:10181200D20130910302341710F0979801C0979AC1
:1018220008952991222349F059F12033D0F32A3324
:10183200C0F720532F934395F4CF22272093C90159
:101842002093CA01E0E1FFE188944423C9F02F917B
:10185200222399F02A952F93C895202D3091C90102
:10186200321F3093C901E395C895202D3091CA01EA
:10187200321F3093CA013197E8CF4A953296E5CFAD
:10188200089530E23093D80130E53093D90131E048
:101892003093DA0148E0C798220F10F4C59A01C0CC
:1018A200C59879DAC79A77DAB6992395C7984A958F
:1018B20099F70895000000000000000000000000F9
:1018C2000000000000000000000000000000000016
:1018D2000000000000000000000000000000000006
:1018E20000000000000008953F9339E13093D801D1
:1018F20033E03093D90131E03093DA014CDA3F9191
:10190200089530E23093D80133E13093D90131E0C8
:101912003093DA01D49ADC983EDADC9ACC9BFECF83
:10192200CC99FECFCC9BFECF36DA089539E13093C5
:10193200D80133E03093D90131E03093DA01D49AFF
:1019420048E0269528F4DC98B5DFDC9A24DA04C056
:10195200DC9821DADC9AAEDF4A9599F708952227BE
:1019620048E0D49ADC98A6DFD498DC98A3DFA2DF03
:10197200A1DF8894CC9B01C008942795B5DF4A95D6
:1019820081F70895BEDF23E3D1DFE9DF522F5FD471
:10199200E6DF522F5CD4E3DF522F59D4E0DF522F1F
:1019A20056D4DDDF522F53D4DADF522F50D4D7DF93
:1019B200522F4DD4D4DF522F4AD42DE0522F47D488
:1019C2000895ABEDB1E0C8950D923196C8950D9290
:1019D2003196C8950D923196C8950D923196C8955B
:1019E2000D923196C8950D923196C8950D92319609
:1019F200C8950D923196C8950D92ABEDB1E0AF93BB
:101A0200BF937FDF49E04F932D9190DF4F914A952D
:101A1200D1F724E48BDFA3DF2223E9F372DFBF9146
:101A2200AF9149E04F932D9181DF4F914A95D1F7C4
:101A32002EEB7CDF94DF889427952F93522F8FDF34
:101A4200522F2F9108955DDF2CEC70DF25E56EDFBC
:101A520027E06CDF20E06ADF2EE068DF80DF522FB4
:101A6200F6D37DDF522FF3D3089579DF522FEFD3D0
:101A720076DF522FECD373DF522FE9D370DF522F70
:101A8200E6D36DDF522FE3D36ADF522FE0D367DF55
:101A9200522FDDD364DF522FDAD3089532DF4DE0C7
:101AA2004F932D9143DF4F914A95D1F758DF522F33
:101AB200CED355DF522FCBD3089523DF2CEC36DF64
:101AC20025E534DF27E032DF20E030DF2DE62EDFB0
:101AD20046DF522FBCD343DF522FB9D30895ABED6B
:101AE200B1E0C8950D923196C8950D923196C89580
:101AF2000D923196C8950D923196C8950D923196F8
:101B0200C8950D923196C8950D923196C8950D9251
:101B12003196C8950D923196C8950D923196C89519
:101B22000D92ABEDB1E0EDDE4BE04F932D91FEDE79
:101B32004F914A95D1F713DF12DF0895E8E1F0E003
:101B42002DDC20FF0CC020E0E8E1F0E017DC47D9F3
:101B52005FE47DD356E67BD356E679D30AC0E8E14B
:101B6200F0E021E00BDC3BD95FE471D35EE66FD39A
:101B720000C044274093F901409350015CD308957B
:101B82002FEF2093D8012FEF2093D90124E0209347
:101B9200DA0101D95EEF5BD358E559D352E557D349
:101BA20055E655D356E653D35AE351D32091050255
:101BB2002395293208F02AE02093050241E5F4DD5D
:101BC20044274093F9014093500135D30895636C43
:101BD2006F636B00436C65617241430052656164DF
:101BE20043430000436C6561724343005472696D64
:101BF2004269747300007665720074657374000044
:101C020073656E643D00626175643D006D6F3D00F9
:101C1200236765747375627566004F4B0D004552FC
:101C2200524F52002B4350494E3A2052454144599B
:101C320000002B434D54493A2022534D222C0000E0
:101C42002B434D54493A2022534D222C32002B4330
:101C52004D474C3A20002B434D47523A0000554E17
:101C620052454144222C222B0000222C2C2200001F
:101C72004E4F2043415252494552000052494E476D
:101C82000000434F4E4E454354006C616D7074002A
:101C9200737370693D007374786574783D00737472
:101CA20078657478303D00000D00706F6C6C000038
:101CB200536574546172676574506E6F3D0053656D
:101CC2007450617373506E6F3D0053657443757346
:101CD200746F6D65724E6F3D000053657454656D8F
:101CE200705265663D00436F70797269676874204F
:101CF2002863292032303034204A61726C264A61CE
:101D0200726D6F0D0000204820202000204C0D0035
:101D1200617465300D0061742B636963623D300D3F
:101D2200000061742B6370696E3D223132303022C3
:101D32000D0061742B6370696E3F0D0061742B633B
:101D42007363613D222B34363730383030303730D0
:101D520038220D0061742B636D67733D220061743C
:101D620073303D320D00617473303D300D0061748B
:101D72002B636D67643D312C340D000061742B635D
:101D82006D67643D312C320D000061742B63706904
:101D92006E3F0D0061742B636D67663D310D00006F
:101DA20061742B636D676C3D22414C4C220D000027
:101DB20061742B636D67723D310D000061742B639A
:101DC2006D67723D320D000061742B636D67723D69
:101DD200330D000061742B636D67723D340D00009A
:101DE20061742B636D67723D350D000061742B6366
:101DF2006D67723D000061742B63706F660D0000A9
:101E02002B4350494E3A2052454144590D0A000095
:101E12004552520D0000544C5053202020310D00E9
:101E2200544C5454202020310D00504F5752202042
:101E320020310D00504F5752202020300D004952C2
:101E42004742202020310D004952474220202032B3
:101E52000D0049564544202020310D004956454485
:101E6200202020320D00494D424B202020310D0010
:101E7200494D424B202020300D00495645443F3FFA
:101E82003F3F0D00495247423F3F3F3F0D00564FF3
:101E92004C41202000004943484B3F3F3F3F0D004B
:101EA200551084EFF2010800D30055109A3B150239
:101EB2000800F1005510781B150208004E0055125B
:101EC200D02373000000D3F5F2005512A01F730057
:101ED2000000EEF5F20055122F227300000048F5C3
:101EE200F2008033E10180510100100E00003C003D
:101EF2000000070000002A0000006C0000005600ED
:101F0200000048000000C0A8000020DE010001001F
:101F12000A006400E8032B3436373033393632375F
:101F22003037202B343637333434333033333620A2
:101F32002B3436373631323630333935202B34367E
:101F4200373034323236323630202B343637303373
:101F5200323034313431202B343637303734333465
:101F6200343838202B34363733353038313031324B
:101F7200202B3436373035313839313135202B3456
:101F820036373631303438363638202B3436373619
:101F920031323831363130202B343637333335381D
:101FA20032393236202B3436373631333037383007
:021FB2003300FA
:00000001FF
